:100000000C942A000C943F000C943F000C943F0089
:100010000C943F000C943F000C943F000C943F0064
:100020000C943F000C943F000C943F000C943F0054
:100030000C943F000C943F000C943F000C943F0044
:100040000C943F000C943F000C943F000C943F0034
:100050000C943F0011241FBECFE5D8E0DEBFCDBF1A
:1000600010E0A0E6B0E0E2E5F2E002C005900D92FB
:10007000A836B107D9F70E94DF000C9427010C9431
:1000800000008AB3806F8ABB88B3846088BB88B362
:100090008D7F88BB88B3826088BB089588B3877FD3
:1000A00088BB83ED90E30197F1F700C0000088B3AF
:1000B000886088BB0895CF93DF93C82F0E944100CA
:1000C0008BB38F709C2F907F892B8BBBD9EFD8BBC4
:1000D0000E944E002BB330E1C39FC0011124922F28
:1000E0009F70892B8BBBD8BB0E944E00DF91CF91B4
:1000F0000895CF93C82F0E9441008BB38F709C2F1F
:10010000907F892B8BBB88B3826088BB88B38B7F41
:1001100088BB0E944E002BB330E1C39FC001112465
:10012000922F9F70892B8BBB88B3826088BB88B36A
:100130008B7F88BB0E944E00CF910895813049F497
:100140008FEF860F8F3078F480E8860F0E945B0077
:100150000895823041F48FEF860F8F3020F480ECC9
:10016000860F0E945B00089581E00E945B00089565
:1001700087E893E10197F1F700C0000087B38E6034
:1001800087BB88B3817F88BB8AB38F608ABB85EACF
:100190009EE00197F1F700C000000E94B40082E0E9
:1001A0000E945B0088E20E945B0086E00E945B0088
:1001B00080E80E945B008FE00E945B0008950E942F
:1001C000B8000E94FD0060E080E00E949E0086E48E
:1001D0000E94120181E60E9412018DE60E94120126
:1001E00080E690E00E941A0160E081E00E949E009B
:1001F0000E9416010E947900FBCF83E389B98BB17D
:100200008D7F8BB98AB188608AB98AB180618AB9D9
:1002100080B5826080BD80B5846080BD8AB18B7FEF
:100220008AB908955D9BFECF8CB908955F9BFECF80
:100230008CB10895CF93DF93EC0103C00E941201AB
:10024000219688818332D1F7DF91CF910895F89478
:02025000FFCFDE
:080252002041796D616E23006B
:00000001FF
