S01B000055696E74375F4C6573736F6E315F5461736B322E737265630A
S11300000C942A000C9434000C9434000C943400A6
S11300100C9434000C9434000C9434000C9434008C
S11300200C9434000C9434000C9434000C9434007C
S11300300C9434000C9434000C9434000C9434006C
S11300400C9434000C9434000C9434000C9434005C
S11300500C94340011241FBECFE5D8E0DEBFCDBF21
S11300600E9436000C945F000C94000081B38E7FD4
S113007081BB82B38E7F82BB81B3806281BB81B33B
S1130080806481BB81B3806881BB80E0809BFECFAC
S1130090811105C092B3906292BB8F5F0DC0813015
S11300A029F492B3906492BB8F5F06C0823021F42E
S11300B092B3906892BB8F5F8099FECFE7CFF8949C
S10500C0FFCF6C
S9030000FC
