:100000000C9439000C9456000C9456000C94560035
:100010000C9456000C9456000C9456000C94560008
:100020000C9456000C9456000C9456000C945600F8
:100030000C940C040C9433040C9456000C945A0445
:100040000C9456000C9456000C9456000C945600D8
:100050000C945600720278027E0284028A02900298
:1000600096029C02020318032E0344035A037003F2
:10007000860311241FBECFE5D8E0DEBFCDBF10E060
:10008000A0E6B0E0E2E1F9E002C005900D92AA36E8
:10009000B107D9F720E0AAE6B0E001C01D92AC3666
:1000A000B207E1F70E9444010C9487040C9400000D
:1000B0008AB3806F8ABB88B3846088BB88B38D7F26
:1000C00088BB88B3826088BB089588B3877F88BB6C
:1000D00083ED90E30197F1F700C0000088B38860DA
:1000E00088BB0895CF93C82F0E9458008BB38F70A0
:1000F0009C2F907F892B8BBB88B3897F88BB0E9404
:1001000065002BB330E1C39FC0011124922F9F7073
:10011000892B8BBB88B3897F88BB0E946500CF91F8
:100120000895CF93C82F0E9458008BB38F709C2FD7
:10013000907F892B8BBB88B3826088BB88B38B7F11
:1001400088BB0E9465002BB330E1C39FC00111241E
:10015000922F9F70892B8BBB88B3826088BB88B33A
:100160008B7F88BB0E946500CF910895813049F450
:100170008FEF860F8F3078F480E8860F0E94720030
:100180000895823041F48FEF860F8F3020F480EC99
:10019000860F0E947200089581E00E947200089507
:1001A00087E893E10197F1F700C0000087B38E6004
:1001B00087BB88B3817F88BB8AB38F608ABB85EA9F
:1001C0009EE00197F1F700C000000E94CC0082E0A1
:1001D0000E94720088E20E94720086E00E94720013
:1001E00080E80E9472008FE00E94720008950F93D1
:1001F0001F93CF93DF938C01C0E0D0E014C00E9426
:100200009100C031D10529F461E082E00E94B6007E
:1002100009C0C032D10531F40E94CC0061E081E018
:100220000E94B6002196F801EC0FFD1F808181111C
:10023000E6CFDF91CF911F910F910895CF93C82FF3
:1002400040E064E086E390E00E9466022FEF81EEDA
:1002500094E0215080409040E1F700C000008C2FD6
:100260000E94FA030E940304CF910895E0E0F0E0B9
:100270001082128281E0818382E08383158214825E
:10028000CF010E94A40208950E9436010E94D0006E
:100290000E94CC0060E081E00E94B60082E690E01F
:1002A0000E94F700D1E4C0E301C0C0E369E081E04F
:1002B0000E94B6008C2F0E94910040E064E086E32B
:1002C00090E00E9466028D2F0E941E01182FDF5FB2
:1002D000DB3509F4D1E4CF5F61E082E00E94B60033
:1002E000812F0E949100C93309F7DFCFFC01DB01A8
:1002F0008C9181111BC011968C91823039F48181CF
:100300008160818382818E7F82830895813039F478
:1003100081818E7F818382818E7F82830895818116
:100320008160818382818E7F828308958130E1F4B0
:10033000DB0111968C91823039F481818260818356
:1003400082818D7F82830895813039F481818D7F10
:10035000818382818D7F8283089581818260818300
:1003600082818D7F828308958230E1F4DB011196D2
:100370008C91823039F481818460818382818B7F8A
:1003800082830895813039F48181877F81838281DE
:10039000877F828308958181886081838281877FBE
:1003A000828308958330E1F4DB0111968C918230D1
:1003B00039F48181886081838281877F8283089577
:1003C000813039F48181877F81838281877F828335
:1003D00008958181886081838281877F82830895E7
:1003E0008430E1F4DB0111968C91823039F4818103
:1003F0008061818382818F7E82830895813039F488
:1004000081818F7E818382818F7E82830895818125
:100410008061818382818F7E828308958530E1F4BB
:10042000DB0111968C91823039F481818062818365
:1004300082818F7D82830895813039F481818F7D1F
:10044000818382818F7D828308958181806281830F
:1004500082818F7D828308958630E1F4DB011196DD
:100460008C91823039F481818064818382818F7B99
:1004700082830895813039F481818F7B81838281E9
:100480008F7B8283089581818064818382818F7BC9
:1004900082830895DB0111968C91823039F4818139
:1004A0008068818382818F7782830895813039F4D7
:1004B00081818F77818382818F7782830895818183
:1004C0008068818382818F77828308950F931F9341
:1004D000062F10E008301105A0F5F801E65DFF4F8A
:1004E0000C948104FC01228140FB20F9228329C065
:1004F000FC01228140FB21F9228323C0FC012281DF
:1005000040FB22F922831DC0FC01228140FB23F91C
:10051000228317C0FC01228140FB24F9228311C0F1
:10052000FC01228140FB25F922830BC0FC012281C2
:1005300040FB26F9228305C0FC01228140FB27F9FC
:1005400022831F910F910895FF920F931F93CF93D2
:10055000DF938C01DC018C91882321F0813009F438
:10056000EBC016C1E0916000F09161008081806174
:1005700080836894FF24F1F8C0E0D0E0F98284E041
:100580008883BE0186E390E00E947601F98287E0CD
:100590008883BE0186E390E00E947601F98285E0BF
:1005A0008883BE0186E390E00E94760181E0898322
:1005B00086E08883BE0186E390E00E947601F80120
:1005C0008281882351F0813079F4E0916000F091CC
:1005D000610080818062808307C0E0916000F091BB
:1005E000610080818F7D8083D8011396EC918E2FDE
:1005F00090E08730910508F0CBC0FC01EE5CFF4F26
:100600000C948104E0916000F0916100818181602F
:100610008183E0916000F091610080818E7F808312
:10062000E0916000F091610080818D7F8083B0C097
:10063000E0916000F091610081818E7F8183E09183
:100640006000F091610080818E7F8083E091600086
:10065000F091610080818D7F80839AC0E09160007D
:10066000F0916100818181608183E0916000F0916F
:10067000610080818E7F8083E0916000F091610055
:1006800080818260808384C0E0916000F09161008D
:1006900081818E7F8183E0916000F0916100808193
:1006A00081608083E0916000F091610080818D7FA6
:1006B00080836EC0E0916000F09161008181816073
:1006C0008183E0916000F09161008081816080838E
:1006D000E0916000F091610080818D7F808358C03F
:1006E000E0916000F0916100818181608183E091FF
:1006F0006000F091610080818E7F8083E0916000D6
:10070000F091610080818260808342C0E09160004E
:10071000F091610081818E7F8183E0916000F09192
:100720006100808181608083E0916000F0916100D0
:100730008081826080832CC0E0916000F091610034
:1007400080818F7E8083FF24F394C0E0D0E0F98223
:1007500084E08883BE0186E390E00E94760182E017
:10076000898386E08883BE0186E390E00E9476015B
:10077000F98285E08883BE0186E390E00E947601DD
:10078000F98287E08883BE0186E390E00E947601CB
:10079000F8018181882319F08130A9F01EC08FB73C
:1007A00080688FBFE0916000F09161008081806877
:1007B0008083D80116968D919C91179790936B002A
:1007C00080936A000AC08FB78F778FBFE091600077
:1007D000F091610080818F778083E0916000F091DB
:1007E0006100808180648083DF91CF911F910F91A0
:1007F000FF900895E0916000F09161008283818113
:100800008823ECF70895E0916000F0916100818108
:100810008823CCF7828108951F920F920FB60F9212
:1008200011242F933F934F935F936F937F938F93F5
:100830009F93AF93BF93EF93FF93E0916A00F09182
:100840006B000995FF91EF91BF91AF919F918F91AF
:100850007F916F915F914F913F912F910F900FBEBC
:100860000F901F9018951F920F920FB60F921124A0
:100870002F933F934F935F936F937F938F939F93A8
:10088000AF93BF93EF93FF93E0916A00F0916B00F9
:100890000995FF91EF91BF91AF919F918F917F91BA
:1008A0006F915F914F913F912F910F900FBE0F90DD
:1008B0001F9018951F920F920FB60F9211242F932D
:1008C0003F934F935F936F937F938F939F93AF93D8
:1008D000BF93EF93FF93E0916A00F0916B0009954D
:1008E000FF91EF91BF91AF919F918F917F916F9108
:1008F0005F914F913F912F910F900FBE0F901F90DE
:100900001895EE0FFF1F0590F491E02D0994F894CF
:02091000FFCF17
:0A0912002D004D6173746572000042
:00000001FF
