S00F000053656374696F6E2E7372656340
S11300000C942A000C9447000C9447000C9447006D
S11300100C9447000C9447000C9447000C94470040
S11300200C9447000C9447000C9447000C94470030
S11300300C9447000C9499020C9447000C94C00251
S11300400C9447000C9447000C9447000C94470010
S11300500C94470011241FBECFE5D8E0DEBFCDBF0E
S113006010E0A0E6B0E0E2EDF5E002C005900D92EC
S1130070AC36B107D9F720E0ACE6B0E001C01D9280
S1130080A037B207E1F70E942E010C94E7020C940A
S113009000008AB3806F8ABB88B3846088BB88B34E
S11300A08D7F88BB88B3826088BB089588B3877FBF
S11300B088BB2FE788E391E0215080409040E1F72E
S11300C000C0000088B3886088BB0895CF93DF9395
S11300D0C82F0E9449008BB38F709C2F907F892B6F
S11300E08BBBD9EFD8BB0E9456002BB330E1C39F22
S11300F0C0011124922F9F70892B8BBBD8BB0E9407
S11301005600DF91CF910895CF93C82F0E944900E4
S11301108BB38F709C2F907F892B8BBB88B38260AD
S113012088BB88B38B7F88BB0E9456002BB330E119
S1130130C39FC0011124922F9F70892B8BBB88B35E
S1130140826088BB88B38B7F88BB0E945600CF91A6
S11301500895813039F4613168F480E8860F0E9493
S113016066000895823031F4613120F480EC860F0A
S11301700E946600089581E00E94660008958FE35E
S11301809CE90197F1F700C0000087B38E6087BB3C
S113019088B3817F88BB8AB38F608ABB8FE295E77F
S11301A00197F1F700C000000E94BB0082E00E94AA
S11301B0660088E20E94660086E00E94660080E88D
S11301C00E9466008FE00E946600089560916C00B2
S11301D082E00E94A90081E00E9482020E948400C1
S11301E02FEF89E698E1215080409040E1F700C06C
S11301F0000080916C0090916D00019690936D00C9
S113020080936C000895CF93DF93CDB7DEB72C971E
S11302100FB6F894DEBF0FBECDBF83E390E0A0E03D
S1130220B0E08B839C83AD83BE8383E08F8382E0C5
S11302308A8391E0998318868A8786EE90E09C876A
S11302408B87CE0101960E9472012C960FB6F8940A
S1130250DEBF0FBECDBFDF91CF910895CF93DF9363
S1130260CDB7DEB72A970FB6F894DEBF0FBECDBF69
S11302700E9403010E94BF000E94BB002FEF84E391
S11302809CE0215080409040E1F700C000008AE0EB
S1130290E2E6F0E0DE01119601900D928A95E1F715
S11302A000E010E060E081E00E94A900E1E0F0E0FD
S11302B0EC0FFD1FE00FF11F80810E9484000F5F8F
S11302C01F4F0A30110521F40E94BB0000E010E02A
S11302D02FEF8EE994E2215080409040E1F700C076
S11302E00000E0CFFC01A0916000B0916100828128
S11302F08C938081813009F004C18181813079F04F
S113030018F08230B9F02AC0A0916000B091610069
S113031011968C911197886011968C931FC0A091AF
S11303206000B091610011968C91119780611196D3
S11303308C9314C0A0916000B091610011968C91CF
S11303401197886011968C93A0916000B091610020
S113035011968C911197806111968C9386818230CD
S1130360C9F028F4882341F0813069F031C083302A
S1130370C1F08430E9F02CC080B58D7F80BD80B59C
S11303808B7F80BD25C080B5826080BD80B58B7FAA
S113039080BD1EC080B58D7F80BD80B5846080BD6A
S11303A017C080B5826080BD80B5846080BD10C0F8
S11303B080B5826080BD80B5846080BDA0916000FE
S11303C0B091610011968C911197846011968C9371
S11303D08085813019F0823021F006C080B5877F96
S11303E080BD80B5886080BD8781813059F018F068
S11303F0823079F014C080B58F7E80BD80B58F7D4A
S113040080BD0DC080B58F7E80BD80B5806280BD0B
S113041006C080B5806180BD80B5806280BD818565
S11304208130B1F030F0823089F1833009F44CC06E
S11304300895E0916000F091610081818F7B818358
S1130440E0916000F091610081818F7B8183089548
S11304508FB780688FBFA0916000B0916100119642
S11304608C911197806411968C93A0916000B09147
S1130470610011968C9111978F7711968C938285D8
S1130480938590936F0080936E0008958FB7806872
S11304908FBFA0916000B091610011968C9111976B
S11304A08F7B11968C93A0916000B091610011969E
S11304B08C911197806811968C9382859385909383
S11304C06F0080936E0008958FB780688FBFA091EE
S11304D06000B091610011968C9111978F7B1196F9
S11304E08C93A0916000B091610011968C9111974A
S11304F0806811968C938285938590936F00809386
S11305006E000895882339F0E0916000F091610055
S113051082818823CCF7E0916000F09161008181B1
S113052082FF04C08181838190E00895838190E0FB
S113053008951F920F920FB60F9211242F933F9399
S11305404F935F936F937F938F939F93AF93BF93D7
S1130550EF93FF93E0916E00F0916F000995FF9186
S1130560EF91BF91AF919F918F917F916F915F9127
S11305704F913F912F910F900FBE0F901F901895A0
S11305801F920F920FB60F9211242F933F934F9304
S11305905F936F937F938F939F93AF93BF93EF93E7
S11305A0FF93E0916E00F0916F000995FF91EF9138
S11305B0BF91AF919F918F917F916F915F914F9177
S11305C03F912F910F900FBE0F901F901895F894A4
S10505D0FFCF57
S10F05D2290030313233343536373839E3
S9030000FC
