S01600004C43445F416E645F4B65797061642E737265630C
S11300000C942A000C943F000C943F000C943F0085
S11300100C943F000C943F000C943F000C943F0060
S11300200C943F000C943F000C943F000C943F0050
S11300300C943F000C943F000C943F000C943F0040
S11300400C943F000C943F000C943F000C943F0030
S11300500C943F0011241FBECFE5D8E0DEBFCDBF16
S113006010E0A0E6B0E0EEE1F2E002C005900D92EF
S1130070A037B107D9F70E9406010C940D010C9426
S113008000008AB3806F8ABB88B3846088BB88B35E
S11300908D7F88BB88B3826088BB089588B3877FCF
S11300A088BB83ED90E30197F1F700C0000088B3AB
S11300B0886088BB0895CF93DF93C82F0E944100C6
S11300C08BB38F709C2F907F892B8BBBD9EFD8BBC0
S11300D00E944E002BB330E1C39FC0011124922F24
S11300E09F70892B8BBBD8BB0E944E00DF91CF91B0
S11300F00895CF93C82F0E9441008BB38F709C2F1B
S1130100907F892B8BBB88B3826088BB88B38B7F3D
S113011088BB0E944E002BB330E1C39FC001112461
S1130120922F9F70892B8BBB88B3826088BB88B366
S11301308B7F88BB0E944E00CF910895813049F493
S11301408FEF860F8F3078F480E8860F0E945B0073
S11301500895823041F48FEF860F8F3020F480ECC5
S1130160860F0E945B00089581E00E945B00089561
S113017087E893E10197F1F700C0000087B38E6030
S113018087BB88B3817F88BB8AB38F608ABB85EACB
S11301909EE00197F1F700C000000E94B40082E0E5
S11301A00E945B0088E20E945B0086E00E945B0084
S11301B080E80E945B008FE00E945B0008950F932B
S11301C01F93CF93DF938C01C0E0D0E014C00E9452
S11301D07900C031D10529F461E082E00E949E00DB
S11301E009C0C032D10531F40E94B40061E081E05D
S11301F00E949E002196F801EC0FFD1F8081811161
S1130200E6CFDF91CF911F910F9108950E94B8001E
S111021080E690E00E94DF00FFCFF894FFCF5D
S113021E4C6561726E2D696E2D6465707468000094
S9030000FC
