:100000000C942A000C944D000C946C000C948B0002
:100010000C9434000C9434000C9434000C94340090
:100020000C9434000C9434000C9434000C94340080
:100030000C9434000C9434000C9434000C94340070
:100040000C9434000C9434000C9434000C94340060
:100050000C94340011241FBECFE5D8E0DEBFCDBF25
:100060000E9448000C94AA000C94000081B3806E9A
:1000700081BB82B38F7182BB0895789485B78D6000
:1000800085BF84B7807484BF8BB7806E8BBF0895A3
:100090000E9436000E943D00FFCF1F920F920FB6C4
:1000A0000F9211242F938F939F9382B3806282BB10
:1000B0002FE38DE093E0215080409040E1F700C0B5
:1000C000000082B38F7D82BB9F918F912F910F9003
:1000D0000FBE0F901F9018951F920F920FB60F92A0
:1000E00011242F938F939F9382B3806482BB2FE35D
:1000F0008DE093E0215080409040E1F700C0000087
:1001000082B38F7B82BB9F918F912F910F900FBEF7
:100110000F901F9018951F920F920FB60F921124F7
:100120002F938F939F9382B3806882BB2FE38DE0E0
:1001300093E0215080409040E1F700C0000082B37E
:100140008F7782BB9F918F912F910F900FBE0F9051
:080150001F901895F894FFCFF1
:00000001FF
