:100000000C942A000C9434000C9434000C943400AA
:100010000C9434000C9434000C9434000C94340090
:100020000C9434000C9434000C9434000C94340080
:100030000C9434000C9434000C9434000C94340070
:100040000C9434000C9434000C9434000C94340060
:100050000C94340011241FBECFE5D8E0DEBFCDBF25
:100060000E9436000C945B000C9400008FEF84BB60
:1000700090E01EC040E1949F900111242B6025BBAD
:10008000EFE5FAEE3197F1F700C00000F0E18F9F45
:1000900090011124276025BBEFE5FAEE3197F1F7C7
:1000A00000C000008F5F01C080E08A3018F39F5FBE
:0A00B0009A30D0F3DDCFF894FFCFB3
:00000001FF
