:100000000C942A000C9434000C9434000C943400AA
:100010000C9434000C9434000C9434000C94340090
:100020000C9434000C9434000C9434000C94340080
:100030000C9434000C9434000C9434000C94340070
:100040000C9434000C9434000C9434000C94340060
:100050000C94340011241FBECFE5D8E0DEBFCDBF25
:100060000E9436000C9488000C94000081B38062DA
:1000700081BB81B3806481BB81B3806881BB82B363
:10008000806282BB2FEF89E698E12150804090404A
:10009000E1F700C0000082B3806482BB2FEF89E6E5
:1000A00098E1215080409040E1F700C0000082B309
:1000B000806882BB2FEF89E698E121508040904014
:1000C000E1F700C0000082B38F7782BB2FEF89E693
:1000D00098E1215080409040E1F700C0000082B3D9
:1000E0008F7B82BB2FEF89E698E1215080409040C2
:1000F000E1F700C0000082B38F7D82BB2FEF89E65D
:1001000098E1215080409040E1F700C00000B7CF57
:04011000F894FFCF91
:00000001FF
