:100000000C9431000C944E000C944E000C944E0055
:100010000C944E000C944E000C944E000C944E0028
:100020000C944E000C944E000C944E000C944E0018
:100030000C94A3030C94CA030C944E000C94F1038B
:100040000C944E000C944E000C944E000C944E00F8
:100050000C944E009902AF02C502DB02F1020703C5
:100060001D0311241FBECFE5D8E0DEBFCDBF10E0D9
:10007000A0E6B0E0E0E4F8E002C005900D92A836FA
:10008000B107D9F720E0A8E6B0E001C01D92AA367A
:10009000B207E1F70E941D010C941E040C940000AD
:1000A0008AB3806F8ABB88B3846088BB88B38D7F36
:1000B00088BB88B3826088BB089588B3877F88BB7C
:1000C0002FE788E391E0215080409040E1F700C0A5
:1000D000000088B3886088BB0895CF93DF93C82F52
:1000E0000E9450008BB38F709C2F907F892B8BBB0D
:1000F000D9EFD8BB0E945D002BB330E1C39FC00194
:100100001124922F9F70892B8BBBD8BB0E945D005E
:10011000DF91CF910895CF93C82F0E9450008BB3E9
:100120008F709C2F907F892B8BBB88B3826088BB9C
:1001300088B38B7F88BB0E945D002BB330E1C39FE7
:10014000C0011124922F9F70892B8BBB88B38260D2
:1001500088BB88B38B7F88BB0E945D00CF910895D8
:10016000813039F4613168F480E8860F0E946D00B7
:100170000895823031F4613120F480EC860F0E94C2
:100180006D00089581E00E946D0008958FE39CE961
:100190000197F1F700C0000087B38E6087BB88B37A
:1001A000817F88BB8AB38F608ABB8FE295E7019716
:1001B000F1F700C000000E94C20082E00E946D00C2
:1001C00088E20E946D0086E00E946D0080E80E9437
:1001D0006D008FE00E946D0008950F931F93CF93E1
:1001E000DF938C01C0E0D0E014C00E948B00C031CE
:1001F000D10529F461E082E00E94B00009C0C0325C
:10020000D10531F40E94C20061E081E00E94B0009B
:100210002196F801EC0FFD1F80818111E6CFDF915F
:10022000CF911F910F91089521E080E090E0FC01B3
:10023000208321830E943B0208950E9414010E94A2
:10024000C6000E94C20060E081E00E94B00082E629
:1002500090E00E94ED00D1E4C0E301C0C0E369E09A
:1002600081E00E94B0008C2F0E948B008D2F0E9495
:1002700091030E949A03182FDF5FDB3509F4D1E464
:10028000CF5F61E082E00E94B000812F0E948B006E
:10029000C93329F7E3CFFC01DB018C9181111BC02D
:1002A00011968C91823039F48181816081838281C1
:1002B0008E7F82830895813039F481818E7F81839E
:1002C00082818E7F82830895818181608183828192
:1002D0008E7F828308958130E1F4DB0111968C9149
:1002E000823039F481818260818382818D7F828333
:1002F0000895813039F481818D7F818382818D7F62
:100300008283089581818260818382818D7F82834F
:1003100008958230E1F4DB0111968C91823039F43A
:1003200081818460818382818B7F82830895813083
:1003300039F48181877F81838281877F82830895D9
:100340008181886081838281877F82830895833061
:10035000E1F4DB0111968C91823039F4818188605F
:1003600081838281877F82830895813039F48181FE
:10037000877F81838281877F8283089581818860DE
:1003800081838281877F828308958430E1F4DB0159
:1003900011968C91823039F48181806181838281D0
:1003A0008F7E82830895813039F481818F7E8183AD
:1003B00082818F7E828308958181806181838281A1
:1003C0008F7E828308958530E1F4DB0111968C9154
:1003D000823039F481818062818382818F7D828342
:1003E0000895813039F481818F7D818382818F7D71
:1003F0008283089581818062818382818F7D82835F
:1004000008958630E1F4DB0111968C91823039F445
:1004100081818064818382818F7B82830895813092
:1004200039F481818F7B818382818F7B82830895E0
:1004300081818064818382818F7B82830895DB0147
:1004400011968C91823039F4818180688183828118
:100450008F7782830895813039F481818F7781830A
:1004600082818F77828308958181806881838281F0
:100470008F7782830895FF920F931F93CF93DF931B
:100480008C01DC018C91882321F0813009F4EBC0D0
:1004900016C1E0916000F0916100808180618083ED
:1004A0006894FF24F1F8C0E0D0E0F98284E088830A
:1004B000BE0186E390E00E944B01F98287E08883C9
:1004C000BE0186E390E00E944B01F98285E08883BB
:1004D000BE0186E390E00E944B0181E0898386E0C3
:1004E0008883BE0186E390E00E944B01F80182817F
:1004F000882351F0813079F4E0916000F09161003F
:1005000080818062808307C0E0916000F09161008B
:1005100080818F7D8083D8011396EC918E2F90E09F
:100520008730910508F0CBC0FC01E65DFF4F0C94CD
:100530001804E0916000F091610081818160818305
:10054000E0916000F091610080818E7F8083E09176
:100550006000F091610080818D7F8083B0C0E09168
:100560006000F091610081818E7F8183E091600065
:10057000F091610080818E7F8083E0916000F09136
:10058000610080818D7F80839AC0E0916000F0914E
:100590006100818181608183E0916000F091610060
:1005A00080818E7F8083E0916000F0916100808186
:1005B0008260808384C0E0916000F091610081815D
:1005C0008E7F8183E0916000F09161008081816085
:1005D0008083E0916000F091610080818D7F808355
:1005E0006EC0E0916000F091610081818160818343
:1005F000E0916000F0916100808181608083E091F2
:100600006000F091610080818D7F808358C0E0910F
:100610006000F0916100818181608183E0916000E0
:10062000F091610080818E7F8083E0916000F09185
:10063000610080818260808342C0E0916000F0911F
:10064000610081818E7F8183E0916000F091610083
:10065000808181608083E0916000F0916100808101
:10066000826080832CC0E0916000F0916100808105
:100670008F7E8083FF24F394C0E0D0E0F98284E091
:100680008883BE0186E390E00E944B0182E089836B
:1006900086E08883BE0186E390E00E944B01F982E8
:1006A00085E08883BE0186E390E00E944B01F982D9
:1006B00087E08883BE0186E390E00E944B01F80149
:1006C0008181882319F08130A9F01EC08FB780681E
:1006D0008FBFE0916000F09161008081806880832D
:1006E000D80116968D919C911797909369008093ED
:1006F00068000AC08FB78F778FBFE0916000F091DC
:10070000610080818F778083E0916000F0916100CB
:10071000808180648083DF91CF911F910F91FF9042
:100720000895E0916000F0916100828381818823C7
:10073000ECF70895E0916000F091610081818823D9
:10074000CCF7828108951F920F920FB60F92112459
:100750002F933F934F935F936F937F938F939F93C9
:10076000AF93BF93EF93FF93E0916800F09169001E
:100770000995FF91EF91BF91AF919F918F917F91DB
:100780006F915F914F913F912F910F900FBE0F90FE
:100790001F9018951F920F920FB60F9211242F934E
:1007A0003F934F935F936F937F938F939F93AF93F9
:1007B000BF93EF93FF93E0916800F0916900099572
:1007C000FF91EF91BF91AF919F918F917F916F9129
:1007D0005F914F913F912F910F900FBE0F901F90FF
:1007E00018951F920F920FB60F9211242F933F93DB
:1007F0004F935F936F937F938F939F93AF93BF9329
:10080000EF93FF93E0916800F09169000995FF91E3
:10081000EF91BF91AF919F918F917F916F915F9178
:100820004F913F912F910F900FBE0F901F901895F1
:10083000EE0FFF1F0590F491E02D0994F894FFCF7F
:080840002D00536C6176650088
:00000001FF
