:100000000C9431000C944E000C944E000C944E0055
:100010000C944E000C944E000C944E000C944E0028
:100020000C944E000C944E000C944E000C944E0018
:100030000C94C9020C94F0020C944E000C9417031B
:100040000C944E000C944E000C944E000C944E00F8
:100050000C944E00C001D601EC01020218022E02DF
:10006000440211241FBECFE5D8E0DEBFCDBF10E0B3
:10007000A0E6B0E0ECE8F6E002C005900D92A236F2
:10008000B107D9F720E0A2E6B0E001C01D92A43686
:10009000B207E1F70E9459000C9444030C9400004D
:1000A00021E080E090E0FC01208321830E94630135
:1000B00008958FEF8ABB0E945000C0E0D0E00EC0D0
:1000C0008C2F0E94BF028BBB2FE38DE093E0215069
:1000D00080409040E1F700C000002196CF3FD1055D
:1000E00079F374F3EACFFC01DB018C9181111BC021
:1000F00011968C91823039F4818181608183828173
:100100008E7F82830895813039F481818E7F81834F
:1001100082818E7F82830895818181608183828143
:100120008E7F828308958130E1F4DB0111968C91FA
:10013000823039F481818260818382818D7F8283E4
:100140000895813039F481818D7F818382818D7F13
:100150008283089581818260818382818D7F828301
:1001600008958230E1F4DB0111968C91823039F4EC
:1001700081818460818382818B7F82830895813035
:1001800039F48181877F81838281877F828308958B
:100190008181886081838281877F82830895833013
:1001A000E1F4DB0111968C91823039F48181886011
:1001B00081838281877F82830895813039F48181B0
:1001C000877F81838281877F828308958181886090
:1001D00081838281877F828308958430E1F4DB010B
:1001E00011968C91823039F4818180618183828182
:1001F0008F7E82830895813039F481818F7E81835F
:1002000082818F7E82830895818180618183828152
:100210008F7E828308958530E1F4DB0111968C9105
:10022000823039F481818062818382818F7D8283F3
:100230000895813039F481818F7D818382818F7D22
:100240008283089581818062818382818F7D828310
:1002500008958630E1F4DB0111968C91823039F4F7
:1002600081818064818382818F7B82830895813044
:1002700039F481818F7B818382818F7B8283089592
:1002800081818064818382818F7B82830895DB01F9
:1002900011968C91823039F48181806881838281CA
:1002A0008F7782830895813039F481818F778183BC
:1002B00082818F77828308958181806881838281A2
:1002C0008F7782830895FF920F931F93CF93DF93CD
:1002D0008C01DC018C91882321F0813009F4EAC083
:1002E0001CC1E0916000F091610080818061808399
:1002F0006894FF24F1F8C0E0D0E0F98284E08883BC
:10030000BE0186E390E00E947300F98287E0888353
:10031000BE0186E390E00E947300F98285E0888345
:10032000BE0186E390E00E947300F98286E0888334
:10033000BE0186E390E00E947300F8018281882369
:1003400051F0813079F4E0916000F091610080819A
:100350008062808307C0E0916000F091610080813D
:100360008F7D8083D8011396EC918E2F90E087309B
:10037000910508F0D2C0FC01E65DFF4F0C943E03EE
:10038000E0916000F0916100818181608183E09162
:100390006000F091610080818E7F8083E091600039
:1003A000F091610080818D7F8083B7C0E091600013
:1003B000F091610081818E7F8183E0916000F091F6
:1003C000610080818E7F8083E0916000F091610008
:1003D00080818D7F8083A1C0E0916000F0916100F9
:1003E000818181608183E0916000F0916100808172
:1003F0008E7F8083E0916000F09161008081826057
:1004000080838BC0E0916000F091610081818E7FDC
:100410008183E0916000F091610080818160808340
:10042000E0916000F091610080818D7F808375C0D4
:10043000E0916000F0916100818181608183E091B1
:100440006000F0916100808181608083E0916000B4
:10045000F091610080818D7F80835FC0E0916000BA
:10046000F0916100818181608183E0916000F09171
:10047000610080818E7F8083E0916000F091610057
:1004800080818260808349C0E0916000F0916100CA
:1004900081818E7F8183E0916000F0916100808195
:1004A00081608083E0916000F091610080818260D2
:1004B000808333C0E0916000F091610080818064AE
:1004C0008083E0916000F091610080818F7E808365
:1004D000FF24F394C0E0D0E0F98284E08883BE0179
:1004E00086E390E00E94730082E0898386E088833F
:1004F000BE0186E390E00E947300F98285E0888364
:10050000BE0186E390E00E947300F98287E0888351
:10051000BE0186E390E00E947300F8018181882388
:1005200019F08130A9F01EC08FB780688FBFE091AD
:100530006000F0916100808180688083D80114960A
:100540008D919C91159790936300809362000AC0EF
:100550008FB78F778FBFE0916000F091610080814D
:100560008F778083E0916000F091610080818064EA
:100570008083DF91CF911F910F91FF900895E091BB
:100580006000F0916100828381818823ECF7828191
:1005900008951F920F920FB60F9211242F933F933D
:1005A0004F935F936F937F938F939F93AF93BF937B
:1005B000EF93FF93E0916200F09163000995FF9142
:1005C000EF91BF91AF919F918F917F916F915F91CB
:1005D0004F913F912F910F900FBE0F901F90189544
:1005E0001F920F920FB60F9211242F933F934F93A8
:1005F0005F936F937F938F939F93AF93BF93EF938B
:10060000FF93E0916200F09163000995FF91EF91F3
:10061000BF91AF919F918F917F916F915F914F911A
:100620003F912F910F900FBE0F901F9018951F9222
:100630000F920FB60F9211242F933F934F935F9316
:100640006F937F938F939F93AF93BF93EF93FF939A
:10065000E0916200F09163000995FF91EF91BF91E5
:10066000AF919F918F917F916F915F914F913F914A
:100670002F910F900FBE0F901F901895EE0FFF1F38
:0C0680000590F491E02D0994F894FFCF50
:02068C002D003F
:00000001FF
